{
  "contractName": "Dice",
  "abi": [
    {
      "anonymous": false,
      "inputs": [
        {
          "indexed": false,
          "internalType": "uint256",
          "name": "diceId",
          "type": "uint256"
        }
      ],
      "name": "luckytimesEvent",
      "type": "event"
    },
    {
      "anonymous": false,
      "inputs": [
        {
          "indexed": false,
          "internalType": "uint256",
          "name": "diceId",
          "type": "uint256"
        },
        {
          "indexed": false,
          "internalType": "uint8",
          "name": "newNumber",
          "type": "uint8"
        }
      ],
      "name": "rolled",
      "type": "event"
    },
    {
      "anonymous": false,
      "inputs": [
        {
          "indexed": false,
          "internalType": "uint256",
          "name": "diceId",
          "type": "uint256"
        }
      ],
      "name": "rolling",
      "type": "event"
    },
    {
      "inputs": [
        {
          "internalType": "uint256",
          "name": "",
          "type": "uint256"
        }
      ],
      "name": "dices",
      "outputs": [
        {
          "internalType": "uint8",
          "name": "numberOfSides",
          "type": "uint8"
        },
        {
          "internalType": "uint8",
          "name": "color",
          "type": "uint8"
        },
        {
          "internalType": "uint8",
          "name": "currentNumber",
          "type": "uint8"
        },
        {
          "internalType": "enum Dice.diceState",
          "name": "state",
          "type": "uint8"
        },
        {
          "internalType": "uint256",
          "name": "creationValue",
          "type": "uint256"
        },
        {
          "internalType": "address",
          "name": "owner",
          "type": "address"
        },
        {
          "internalType": "address",
          "name": "prevOwner",
          "type": "address"
        },
        {
          "internalType": "uint256",
          "name": "luckyTimes",
          "type": "uint256"
        }
      ],
      "stateMutability": "view",
      "type": "function"
    },
    {
      "inputs": [],
      "name": "numDices",
      "outputs": [
        {
          "internalType": "uint256",
          "name": "",
          "type": "uint256"
        }
      ],
      "stateMutability": "view",
      "type": "function"
    },
    {
      "inputs": [
        {
          "internalType": "uint8",
          "name": "numberOfSides",
          "type": "uint8"
        },
        {
          "internalType": "uint8",
          "name": "color",
          "type": "uint8"
        }
      ],
      "name": "add",
      "outputs": [
        {
          "internalType": "uint256",
          "name": "",
          "type": "uint256"
        }
      ],
      "stateMutability": "payable",
      "type": "function"
    },
    {
      "inputs": [
        {
          "internalType": "uint256",
          "name": "diceId",
          "type": "uint256"
        }
      ],
      "name": "roll",
      "outputs": [],
      "stateMutability": "nonpayable",
      "type": "function"
    },
    {
      "inputs": [
        {
          "internalType": "uint256",
          "name": "diceId",
          "type": "uint256"
        }
      ],
      "name": "stopRoll",
      "outputs": [],
      "stateMutability": "nonpayable",
      "type": "function"
    },
    {
      "inputs": [
        {
          "internalType": "uint256",
          "name": "diceId",
          "type": "uint256"
        },
        {
          "internalType": "address",
          "name": "newOwner",
          "type": "address"
        }
      ],
      "name": "transfer",
      "outputs": [],
      "stateMutability": "nonpayable",
      "type": "function"
    },
    {
      "inputs": [
        {
          "internalType": "uint256",
          "name": "diceId",
          "type": "uint256"
        }
      ],
      "name": "getDiceSides",
      "outputs": [
        {
          "internalType": "uint8",
          "name": "",
          "type": "uint8"
        }
      ],
      "stateMutability": "view",
      "type": "function"
    },
    {
      "inputs": [
        {
          "internalType": "uint256",
          "name": "diceId",
          "type": "uint256"
        }
      ],
      "name": "getDiceNumber",
      "outputs": [
        {
          "internalType": "uint8",
          "name": "",
          "type": "uint8"
        }
      ],
      "stateMutability": "view",
      "type": "function"
    },
    {
      "inputs": [
        {
          "internalType": "uint256",
          "name": "diceId",
          "type": "uint256"
        }
      ],
      "name": "getDiceValue",
      "outputs": [
        {
          "internalType": "uint256",
          "name": "",
          "type": "uint256"
        }
      ],
      "stateMutability": "view",
      "type": "function"
    },
    {
      "inputs": [
        {
          "internalType": "uint256",
          "name": "diceId",
          "type": "uint256"
        }
      ],
      "name": "getLuckyTimes",
      "outputs": [
        {
          "internalType": "uint256",
          "name": "",
          "type": "uint256"
        }
      ],
      "stateMutability": "view",
      "type": "function"
    },
    {
      "inputs": [
        {
          "internalType": "uint256",
          "name": "diceId",
          "type": "uint256"
        }
      ],
      "name": "destroyDice",
      "outputs": [],
      "stateMutability": "payable",
      "type": "function"
    },
    {
      "inputs": [
        {
          "internalType": "uint256",
          "name": "diceId",
          "type": "uint256"
        }
      ],
      "name": "getPrevOwner",
      "outputs": [
        {
          "internalType": "address",
          "name": "",
          "type": "address"
        }
      ],
      "stateMutability": "view",
      "type": "function"
    }
  ],
  "bytecode": "0x60806040526000805534801561001457600080fd5b506117c4806100246000396000f3fe6080604052600436106100a75760003560e01c8063a98c5b7111610064578063a98c5b71146101d8578063b7760c8f14610215578063bb4e3f4d1461023e578063de2271fe1461026e578063ee2fa39c14610299578063f2d03fcf146102d6576100a7565b80631e76dcdd146100ac5780631f7b4f30146100d557806329265db0146100fe5780638c8f53a41461011a578063912475ba14610157578063a819604c1461019b575b600080fd5b3480156100b857600080fd5b506100d360048036038101906100ce91906110f9565b610313565b005b3480156100e157600080fd5b506100fc60048036038101906100f791906110f9565b6105a6565b005b610118600480360381019061011391906110f9565b61073a565b005b34801561012657600080fd5b50610141600480360381019061013c91906110f9565b610950565b60405161014e9190611135565b60405180910390f35b34801561016357600080fd5b5061017e600480360381019061017991906110f9565b6109b6565b604051610192989796959493929190611224565b60405180910390f35b3480156101a757600080fd5b506101c260048036038101906101bd91906110f9565b610a72565b6040516101cf9190611135565b60405180910390f35b3480156101e457600080fd5b506101ff60048036038101906101fa91906110f9565b610ad8565b60405161020c91906112a2565b60405180910390f35b34801561022157600080fd5b5061023c600480360381019061023791906112e9565b610b4b565b005b61025860048036038101906102539190611355565b610d1b565b6040516102659190611135565b60405180910390f35b34801561027a57600080fd5b50610283610fbf565b6040516102909190611135565b60405180910390f35b3480156102a557600080fd5b506102c060048036038101906102bb91906110f9565b610fc5565b6040516102cd91906112a2565b60405180910390f35b3480156102e257600080fd5b506102fd60048036038101906102f891906110f9565b611038565b60405161030a9190611395565b60405180910390f35b803373ffffffffffffffffffffffffffffffffffffffff166001600083815260200190815260200160002060020160009054906101000a900473ffffffffffffffffffffffffffffffffffffffff1673ffffffffffffffffffffffffffffffffffffffff16146103b8576040517f08c379a00000000000000000000000000000000000000000000000000000000081526004016103af90611433565b60405180910390fd5b8160005481106103fd576040517f08c379a00000000000000000000000000000000000000000000000000000000081526004016103f4906114c5565b60405180910390fd5b60006001600085815260200190815260200160002060000160036101000a81548160ff021916908360018111156104375761043661116c565b5b02179055506000600180600086815260200190815260200160002060000160009054906101000a900460ff1660ff166001866104739190611514565b4261047e9190611548565b61048891906115b9565b61049291906115ea565b9050806001600086815260200190815260200160002060000160026101000a81548160ff021916908360ff1602179055506001600085815260200190815260200160002060000160009054906101000a900460ff1660ff168160ff1603610567576001806000868152602001908152602001600020600401546105159190611514565b60016000868152602001908152602001600020600401819055507f2352c307370c87494ff4d210aed715fb1369dd065db4eb1de29183e96c2af4ec8460405161055e9190611135565b60405180910390a15b7ffca7e5ead94c99a33f4db0e5e7ed5266f833f73d27b83852ab0429662c60f5bf848260405161059892919061161f565b60405180910390a150505050565b803373ffffffffffffffffffffffffffffffffffffffff166001600083815260200190815260200160002060020160009054906101000a900473ffffffffffffffffffffffffffffffffffffffff1673ffffffffffffffffffffffffffffffffffffffff161461064b576040517f08c379a000000000000000000000000000000000000000000000000000000000815260040161064290611433565b60405180910390fd5b816000548110610690576040517f08c379a0000000000000000000000000000000000000000000000000000000008152600401610687906114c5565b60405180910390fd5b600180600085815260200190815260200160002060000160036101000a81548160ff021916908360018111156106c9576106c861116c565b5b021790555060006001600085815260200190815260200160002060000160026101000a81548160ff021916908360ff1602179055507f168812357336ee7b54afff4280d17ba364831e5c2d0eb5a3fa2d2634e5e77a868360405161072d9190611135565b60405180910390a1505050565b803373ffffffffffffffffffffffffffffffffffffffff166001600083815260200190815260200160002060020160009054906101000a900473ffffffffffffffffffffffffffffffffffffffff1673ffffffffffffffffffffffffffffffffffffffff16146107df576040517f08c379a00000000000000000000000000000000000000000000000000000000081526004016107d690611433565b60405180910390fd5b816000548110610824576040517f08c379a000000000000000000000000000000000000000000000000000000000815260040161081b906114c5565b60405180910390fd5b60006001600085815260200190815260200160002060010154905060016000858152602001908152602001600020600080820160006101000a81549060ff02191690556000820160016101000a81549060ff02191690556000820160026101000a81549060ff02191690556000820160036101000a81549060ff021916905560018201600090556002820160006101000a81549073ffffffffffffffffffffffffffffffffffffffff02191690556003820160006101000a81549073ffffffffffffffffffffffffffffffffffffffff0219169055600482016000905550503373ffffffffffffffffffffffffffffffffffffffff166108fc829081150290604051600060405180830381858888f19350505050158015610949573d6000803e3d6000fd5b5050505050565b6000816000548110610997576040517f08c379a000000000000000000000000000000000000000000000000000000000815260040161098e906114c5565b60405180910390fd5b6001600084815260200190815260200160002060040154915050919050565b60016020528060005260406000206000915090508060000160009054906101000a900460ff16908060000160019054906101000a900460ff16908060000160029054906101000a900460ff16908060000160039054906101000a900460ff16908060010154908060020160009054906101000a900473ffffffffffffffffffffffffffffffffffffffff16908060030160009054906101000a900473ffffffffffffffffffffffffffffffffffffffff16908060040154905088565b6000816000548110610ab9576040517f08c379a0000000000000000000000000000000000000000000000000000000008152600401610ab0906114c5565b60405180910390fd5b6001600084815260200190815260200160002060010154915050919050565b6000816000548110610b1f576040517f08c379a0000000000000000000000000000000000000000000000000000000008152600401610b16906114c5565b60405180910390fd5b6001600084815260200190815260200160002060000160029054906101000a900460ff16915050919050565b813373ffffffffffffffffffffffffffffffffffffffff166001600083815260200190815260200160002060020160009054906101000a900473ffffffffffffffffffffffffffffffffffffffff1673ffffffffffffffffffffffffffffffffffffffff1614610bf0576040517f08c379a0000000000000000000000000000000000000000000000000000000008152600401610be790611433565b60405180910390fd5b826000548110610c35576040517f08c379a0000000000000000000000000000000000000000000000000000000008152600401610c2c906114c5565b60405180910390fd5b6001600085815260200190815260200160002060020160009054906101000a900473ffffffffffffffffffffffffffffffffffffffff166001600086815260200190815260200160002060030160006101000a81548173ffffffffffffffffffffffffffffffffffffffff021916908373ffffffffffffffffffffffffffffffffffffffff160217905550826001600086815260200190815260200160002060020160006101000a81548173ffffffffffffffffffffffffffffffffffffffff021916908373ffffffffffffffffffffffffffffffffffffffff16021790555050505050565b6000808360ff1611610d62576040517f08c379a0000000000000000000000000000000000000000000000000000000008152600401610d5990611694565b60405180910390fd5b662386f26fc10000341015610dac576040517f08c379a0000000000000000000000000000000000000000000000000000000008152600401610da390611726565b60405180910390fd5b60006040518061010001604052808560ff1681526020018460ff16815260200160018660ff1642610ddd91906115b9565b610de791906115ea565b60ff16815260200160006001811115610e0357610e0261116c565b5b81526020013481526020013373ffffffffffffffffffffffffffffffffffffffff168152602001600073ffffffffffffffffffffffffffffffffffffffff168152602001600081525090506000806000815480929190610e6290611746565b919050559050816001600083815260200190815260200160002060008201518160000160006101000a81548160ff021916908360ff16021790555060208201518160000160016101000a81548160ff021916908360ff16021790555060408201518160000160026101000a81548160ff021916908360ff16021790555060608201518160000160036101000a81548160ff02191690836001811115610f0a57610f0961116c565b5b02179055506080820151816001015560a08201518160020160006101000a81548173ffffffffffffffffffffffffffffffffffffffff021916908373ffffffffffffffffffffffffffffffffffffffff16021790555060c08201518160030160006101000a81548173ffffffffffffffffffffffffffffffffffffffff021916908373ffffffffffffffffffffffffffffffffffffffff16021790555060e08201518160040155905050809250505092915050565b60005481565b600081600054811061100c576040517f08c379a0000000000000000000000000000000000000000000000000000000008152600401611003906114c5565b60405180910390fd5b6001600084815260200190815260200160002060000160009054906101000a900460ff16915050919050565b600081600054811061107f576040517f08c379a0000000000000000000000000000000000000000000000000000000008152600401611076906114c5565b60405180910390fd5b6001600084815260200190815260200160002060030160009054906101000a900473ffffffffffffffffffffffffffffffffffffffff16915050919050565b600080fd5b6000819050919050565b6110d6816110c3565b81146110e157600080fd5b50565b6000813590506110f3816110cd565b92915050565b60006020828403121561110f5761110e6110be565b5b600061111d848285016110e4565b91505092915050565b61112f816110c3565b82525050565b600060208201905061114a6000830184611126565b92915050565b600060ff82169050919050565b61116681611150565b82525050565b7f4e487b7100000000000000000000000000000000000000000000000000000000600052602160045260246000fd5b600281106111ac576111ab61116c565b5b50565b60008190506111bd8261119b565b919050565b60006111cd826111af565b9050919050565b6111dd816111c2565b82525050565b600073ffffffffffffffffffffffffffffffffffffffff82169050919050565b600061120e826111e3565b9050919050565b61121e81611203565b82525050565b60006101008201905061123a600083018b61115d565b611247602083018a61115d565b611254604083018961115d565b61126160608301886111d4565b61126e6080830187611126565b61127b60a0830186611215565b61128860c0830185611215565b61129560e0830184611126565b9998505050505050505050565b60006020820190506112b7600083018461115d565b92915050565b6112c681611203565b81146112d157600080fd5b50565b6000813590506112e3816112bd565b92915050565b60008060408385031215611300576112ff6110be565b5b600061130e858286016110e4565b925050602061131f858286016112d4565b9150509250929050565b61133281611150565b811461133d57600080fd5b50565b60008135905061134f81611329565b92915050565b6000806040838503121561136c5761136b6110be565b5b600061137a85828601611340565b925050602061138b85828601611340565b9150509250929050565b60006020820190506113aa6000830184611215565b92915050565b600082825260208201905092915050565b7f446963652063616e206f6e6c79206265207472616e736665727265642062792060008201527f6f776e6572000000000000000000000000000000000000000000000000000000602082015250565b600061141d6025836113b0565b9150611428826113c1565b604082019050919050565b6000602082019050818103600083015261144c81611410565b9050919050565b7f64696365204944206d757374206265206c657373207468616e206e756d62657260008201527f206f662064696365730000000000000000000000000000000000000000000000602082015250565b60006114af6029836113b0565b91506114ba82611453565b604082019050919050565b600060208201905081810360008301526114de816114a2565b9050919050565b7f4e487b7100000000000000000000000000000000000000000000000000000000600052601160045260246000fd5b600061151f826110c3565b915061152a836110c3565b9250828201905080821115611542576115416114e5565b5b92915050565b6000611553826110c3565b915061155e836110c3565b925082820261156c816110c3565b91508282048414831517611583576115826114e5565b5b5092915050565b7f4e487b7100000000000000000000000000000000000000000000000000000000600052601260045260246000fd5b60006115c4826110c3565b91506115cf836110c3565b9250826115df576115de61158a565b5b828206905092915050565b60006115f582611150565b915061160083611150565b9250828201905060ff811115611619576116186114e5565b5b92915050565b60006040820190506116346000830185611126565b611641602083018461115d565b9392505050565b7f64696365206d7573742068617665206174206c65617374203120736964650000600082015250565b600061167e601e836113b0565b915061168982611648565b602082019050919050565b600060208201905081810360008301526116ad81611671565b9050919050565b7f6174206c6561737420302e303120455448206973206e656564656420746f207360008201527f7061776e2061206e657720646963650000000000000000000000000000000000602082015250565b6000611710602f836113b0565b915061171b826116b4565b604082019050919050565b6000602082019050818103600083015261173f81611703565b9050919050565b6000611751826110c3565b91507fffffffffffffffffffffffffffffffffffffffffffffffffffffffffffffffff8203611783576117826114e5565b5b60018201905091905056fea26469706673582212200697f2f078bf6fb439a72ff2ef1c74f3c70ca7f79a47dafd779196417cf6dc6564736f6c63430008130033",
  "immutableReferences": {},
  "source": "pragma solidity ^0.8.0;\n\ncontract Dice {\n    \n    enum diceState { stationary, rolling }\n    \n    struct dice {\n        uint8 numberOfSides;\n        uint8 color;\n        uint8 currentNumber;\n        diceState state;\n        uint256 creationValue;\n        address owner;\n        address prevOwner;\n        uint256 luckyTimes; // Ex1\n    }\n    \n    event rolling (uint256 diceId);\n    event rolled (uint256 diceId, uint8 newNumber);\n    event luckytimesEvent (uint256 diceId);\n    \n    uint256 public numDices = 0;\n    mapping(uint256 => dice) public dices;\n\n    //function to create a new dice, and add to 'dices' map. requires at least 0.01ETH to create\n    function add(\n        uint8 numberOfSides,\n        uint8 color\n    ) public payable returns(uint256) {\n        require(numberOfSides > 0, \"dice must have at least 1 side\");\n        require(msg.value >= 0.01 ether, \"at least 0.01 ETH is needed to spawn a new dice\");\n        \n        //new dice object\n        dice memory newDice = dice(\n            numberOfSides,\n            color,\n            (uint8)(block.timestamp % numberOfSides) + 1,  //non-secure random number\n            diceState.stationary,\n            msg.value,\n            msg.sender,  //owner\n            address(0),\n            0 // Ex1\n        );\n        \n        uint256 newDiceId = numDices++;\n        dices[newDiceId] = newDice; //commit to state variable\n        return newDiceId;   //return new diceId\n    }\n\n    //modifier to ensure a function is callable only by its owner    \n    modifier ownerOnly(uint256 diceId) {\n        require(dices[diceId].owner == msg.sender, \"Dice can only be transferred by owner\");\n        _;\n    }\n    \n    modifier validDiceId(uint256 diceId) {\n        require(diceId < numDices, \"dice ID must be less than number of dices\");\n        _;\n    }\n\n    //owner can roll a dice    \n    function roll(uint256 diceId) public ownerOnly(diceId) validDiceId(diceId) {\n            dices[diceId].state = diceState.rolling;    //set state to rolling\n            dices[diceId].currentNumber = 0;    //number will become 0 while rolling\n            emit rolling(diceId);   //emit rolling event\n    }\n\n    function stopRoll(uint256 diceId) public ownerOnly(diceId) validDiceId(diceId) {\n            dices[diceId].state = diceState.stationary; //set state to stationary\n            \n            //this is not a secure randomization\n            uint8 newNumber = (uint8)((block.timestamp*(diceId+1)) % dices[diceId].numberOfSides) + 1;\n            dices[diceId].currentNumber = newNumber;\n\n            // LUCKY TIMES\n            if (newNumber == dices[diceId].numberOfSides) {\n                dices[diceId].luckyTimes = dices[diceId].luckyTimes + 1;\n                emit luckytimesEvent(diceId);\n            }\n            emit rolled(diceId, newNumber); //emit rolled\n    }\n    \n    //transfer ownership to new owner\n    function transfer(uint256 diceId, address newOwner) public ownerOnly(diceId) validDiceId(diceId) {\n        dices[diceId].prevOwner = dices[diceId].owner;\n        dices[diceId].owner = newOwner;\n    }\n\n    //get number of sides of dice    \n    function getDiceSides(uint256 diceId) public view validDiceId(diceId) returns (uint8) {\n        return dices[diceId].numberOfSides;\n    }\n\n    //get current dice number\n    function getDiceNumber(uint256 diceId) public view validDiceId(diceId) returns (uint8) {\n        return dices[diceId].currentNumber;\n    }\n\n    //get ether put in during creation\n    function getDiceValue(uint256 diceId) public view validDiceId(diceId) returns (uint256) {\n        return dices[diceId].creationValue;\n    }\n\n    //Ex1 Get luckyTimes\n    function getLuckyTimes(uint256 diceId) public view validDiceId(diceId) returns (uint256) {\n        return dices[diceId].luckyTimes;\n    }\n\n    //Ex 1 Destroy Dice\n    function destroyDice(uint256 diceId) payable public ownerOnly(diceId) validDiceId(diceId) {\n        uint256 value = dices[diceId].creationValue;\n        delete dices[diceId]; // Remove from mapping\n        payable(msg.sender).transfer(value); // Return value\n    }\n    \n    function getPrevOwner(uint256 diceId) public view validDiceId(diceId) returns (address) {\n        return dices[diceId].prevOwner;\n    }\n}\n",
  "sourcePath": "/Users/liangxin/Documents/Learning/Master/NUS/DFT/Curriculum/SEM2/FT5004 Blockchain Programming/Week 3/env/contracts/Dice.sol",
  "compiler": {
    "name": "solc",
    "version": "0.8.19+commit.7dd6d404.Emscripten.clang"
  },
  "schemaVersion": "3.4.13",
  "updatedAt": "2023-04-05T13:41:28.219Z",
  "devdoc": {
    "kind": "dev",
    "methods": {},
    "version": 1
  },
  "userdoc": {
    "kind": "user",
    "methods": {},
    "version": 1
  }
}