{
  "contractName": "DiceBattle",
  "abi": [
    {
      "inputs": [
        {
          "internalType": "contract Dice",
          "name": "diceAddress",
          "type": "address"
        }
      ],
      "stateMutability": "nonpayable",
      "type": "constructor"
    },
    {
      "anonymous": false,
      "inputs": [
        {
          "indexed": false,
          "internalType": "address",
          "name": "enemy",
          "type": "address"
        }
      ],
      "name": "add_enemy",
      "type": "event"
    },
    {
      "anonymous": false,
      "inputs": [
        {
          "indexed": false,
          "internalType": "uint256",
          "name": "id1",
          "type": "uint256"
        },
        {
          "indexed": false,
          "internalType": "uint256",
          "name": "id2",
          "type": "uint256"
        }
      ],
      "name": "battleDraw",
      "type": "event"
    },
    {
      "anonymous": false,
      "inputs": [
        {
          "indexed": false,
          "internalType": "uint256",
          "name": "id1",
          "type": "uint256"
        },
        {
          "indexed": false,
          "internalType": "uint256",
          "name": "id2",
          "type": "uint256"
        }
      ],
      "name": "battlewin",
      "type": "event"
    },
    {
      "inputs": [
        {
          "internalType": "address",
          "name": "enemy",
          "type": "address"
        }
      ],
      "name": "setBattlePair",
      "outputs": [],
      "stateMutability": "nonpayable",
      "type": "function"
    },
    {
      "inputs": [
        {
          "internalType": "uint256",
          "name": "myDice",
          "type": "uint256"
        },
        {
          "internalType": "uint256",
          "name": "enemyDice",
          "type": "uint256"
        }
      ],
      "name": "battle",
      "outputs": [],
      "stateMutability": "nonpayable",
      "type": "function"
    }
  ],
  "bytecode": "0x60806040523480156200001157600080fd5b506040516200137f3803806200137f8339818101604052810190620000379190620000fc565b806000806101000a81548173ffffffffffffffffffffffffffffffffffffffff021916908373ffffffffffffffffffffffffffffffffffffffff160217905550506200012e565b600080fd5b600073ffffffffffffffffffffffffffffffffffffffff82169050919050565b6000620000b08262000083565b9050919050565b6000620000c482620000a3565b9050919050565b620000d681620000b7565b8114620000e257600080fd5b50565b600081519050620000f681620000cb565b92915050565b6000602082840312156200011557620001146200007e565b5b60006200012584828501620000e5565b91505092915050565b611241806200013e6000396000f3fe608060405234801561001057600080fd5b50600436106100365760003560e01c80632a0c52211461003b578063bc8c1ee714610057575b600080fd5b61005560048036038101906100509190610f75565b610073565b005b610071600480360381019061006c9190611013565b610e82565b005b60008060009054906101000a900473ffffffffffffffffffffffffffffffffffffffff1673ffffffffffffffffffffffffffffffffffffffff1663f2d03fcf846040518263ffffffff1660e01b81526004016100cf919061104f565b602060405180830381865afa1580156100ec573d6000803e3d6000fd5b505050506040513d601f19601f82011682018060405250810190610110919061107f565b905060008060009054906101000a900473ffffffffffffffffffffffffffffffffffffffff1673ffffffffffffffffffffffffffffffffffffffff1663f2d03fcf846040518263ffffffff1660e01b815260040161016e919061104f565b602060405180830381865afa15801561018b573d6000803e3d6000fd5b505050506040513d601f19601f820116820180604052508101906101af919061107f565b90508073ffffffffffffffffffffffffffffffffffffffff16600160008473ffffffffffffffffffffffffffffffffffffffff1673ffffffffffffffffffffffffffffffffffffffff16815260200190815260200160002060009054906101000a900473ffffffffffffffffffffffffffffffffffffffff1673ffffffffffffffffffffffffffffffffffffffff161461027e576040517f08c379a000000000000000000000000000000000000000000000000000000000815260040161027590611109565b60405180910390fd5b8173ffffffffffffffffffffffffffffffffffffffff16600160008373ffffffffffffffffffffffffffffffffffffffff1673ffffffffffffffffffffffffffffffffffffffff16815260200190815260200160002060009054906101000a900473ffffffffffffffffffffffffffffffffffffffff1673ffffffffffffffffffffffffffffffffffffffff161461034b576040517f08c379a000000000000000000000000000000000000000000000000000000000815260040161034290611109565b60405180910390fd5b60008054906101000a900473ffffffffffffffffffffffffffffffffffffffff1673ffffffffffffffffffffffffffffffffffffffff16631f7b4f30856040518263ffffffff1660e01b81526004016103a4919061104f565b600060405180830381600087803b1580156103be57600080fd5b505af11580156103d2573d6000803e3d6000fd5b5050505060008054906101000a900473ffffffffffffffffffffffffffffffffffffffff1673ffffffffffffffffffffffffffffffffffffffff16631e76dcdd856040518263ffffffff1660e01b815260040161042f919061104f565b600060405180830381600087803b15801561044957600080fd5b505af115801561045d573d6000803e3d6000fd5b5050505060008054906101000a900473ffffffffffffffffffffffffffffffffffffffff1673ffffffffffffffffffffffffffffffffffffffff16631f7b4f30846040518263ffffffff1660e01b81526004016104ba919061104f565b600060405180830381600087803b1580156104d457600080fd5b505af11580156104e8573d6000803e3d6000fd5b5050505060008054906101000a900473ffffffffffffffffffffffffffffffffffffffff1673ffffffffffffffffffffffffffffffffffffffff16631e76dcdd846040518263ffffffff1660e01b8152600401610545919061104f565b600060405180830381600087803b15801561055f57600080fd5b505af1158015610573573d6000803e3d6000fd5b5050505060008054906101000a900473ffffffffffffffffffffffffffffffffffffffff1673ffffffffffffffffffffffffffffffffffffffff1663a98c5b71846040518263ffffffff1660e01b81526004016105d0919061104f565b602060405180830381865afa1580156105ed573d6000803e3d6000fd5b505050506040513d601f19601f820116820180604052508101906106119190611162565b60ff1660008054906101000a900473ffffffffffffffffffffffffffffffffffffffff1673ffffffffffffffffffffffffffffffffffffffff1663a98c5b71866040518263ffffffff1660e01b815260040161066d919061104f565b602060405180830381865afa15801561068a573d6000803e3d6000fd5b505050506040513d601f19601f820116820180604052508101906106ae9190611162565b60ff16111561093d5760008054906101000a900473ffffffffffffffffffffffffffffffffffffffff1673ffffffffffffffffffffffffffffffffffffffff1663b7760c8f8560008054906101000a900473ffffffffffffffffffffffffffffffffffffffff1673ffffffffffffffffffffffffffffffffffffffff1663f2d03fcf876040518263ffffffff1660e01b815260040161074d919061104f565b602060405180830381865afa15801561076a573d6000803e3d6000fd5b505050506040513d601f19601f8201168201806040525081019061078e919061107f565b6040518363ffffffff1660e01b81526004016107ab92919061119e565b600060405180830381600087803b1580156107c557600080fd5b505af11580156107d9573d6000803e3d6000fd5b5050505060008054906101000a900473ffffffffffffffffffffffffffffffffffffffff1673ffffffffffffffffffffffffffffffffffffffff1663b7760c8f8460008054906101000a900473ffffffffffffffffffffffffffffffffffffffff1673ffffffffffffffffffffffffffffffffffffffff1663f2d03fcf876040518263ffffffff1660e01b8152600401610873919061104f565b602060405180830381865afa158015610890573d6000803e3d6000fd5b505050506040513d601f19601f820116820180604052508101906108b4919061107f565b6040518363ffffffff1660e01b81526004016108d192919061119e565b600060405180830381600087803b1580156108eb57600080fd5b505af11580156108ff573d6000803e3d6000fd5b505050507fc2267b77fc5e8f75164e18937156243c0c617346d1a70e2cd9c804f14872bee584846040516109349291906111c7565b60405180910390a15b60008054906101000a900473ffffffffffffffffffffffffffffffffffffffff1673ffffffffffffffffffffffffffffffffffffffff1663a98c5b71846040518263ffffffff1660e01b8152600401610996919061104f565b602060405180830381865afa1580156109b3573d6000803e3d6000fd5b505050506040513d601f19601f820116820180604052508101906109d79190611162565b60ff1660008054906101000a900473ffffffffffffffffffffffffffffffffffffffff1673ffffffffffffffffffffffffffffffffffffffff1663a98c5b71866040518263ffffffff1660e01b8152600401610a33919061104f565b602060405180830381865afa158015610a50573d6000803e3d6000fd5b505050506040513d601f19601f82011682018060405250810190610a749190611162565b60ff161015610d035760008054906101000a900473ffffffffffffffffffffffffffffffffffffffff1673ffffffffffffffffffffffffffffffffffffffff1663b7760c8f8460008054906101000a900473ffffffffffffffffffffffffffffffffffffffff1673ffffffffffffffffffffffffffffffffffffffff1663f2d03fcf886040518263ffffffff1660e01b8152600401610b13919061104f565b602060405180830381865afa158015610b30573d6000803e3d6000fd5b505050506040513d601f19601f82011682018060405250810190610b54919061107f565b6040518363ffffffff1660e01b8152600401610b7192919061119e565b600060405180830381600087803b158015610b8b57600080fd5b505af1158015610b9f573d6000803e3d6000fd5b5050505060008054906101000a900473ffffffffffffffffffffffffffffffffffffffff1673ffffffffffffffffffffffffffffffffffffffff1663b7760c8f8560008054906101000a900473ffffffffffffffffffffffffffffffffffffffff1673ffffffffffffffffffffffffffffffffffffffff1663f2d03fcf886040518263ffffffff1660e01b8152600401610c39919061104f565b602060405180830381865afa158015610c56573d6000803e3d6000fd5b505050506040513d601f19601f82011682018060405250810190610c7a919061107f565b6040518363ffffffff1660e01b8152600401610c9792919061119e565b600060405180830381600087803b158015610cb157600080fd5b505af1158015610cc5573d6000803e3d6000fd5b505050507fc2267b77fc5e8f75164e18937156243c0c617346d1a70e2cd9c804f14872bee58385604051610cfa9291906111c7565b60405180910390a15b60008054906101000a900473ffffffffffffffffffffffffffffffffffffffff1673ffffffffffffffffffffffffffffffffffffffff1663a98c5b71846040518263ffffffff1660e01b8152600401610d5c919061104f565b602060405180830381865afa158015610d79573d6000803e3d6000fd5b505050506040513d601f19601f82011682018060405250810190610d9d9190611162565b60ff1660008054906101000a900473ffffffffffffffffffffffffffffffffffffffff1673ffffffffffffffffffffffffffffffffffffffff1663a98c5b71866040518263ffffffff1660e01b8152600401610df9919061104f565b602060405180830381865afa158015610e16573d6000803e3d6000fd5b505050506040513d601f19601f82011682018060405250810190610e3a9190611162565b60ff1603610e7c577ff9f3f9f974abd92da34cad64679308739d89b21de31bbd9bcb8de3fad1a8227e8484604051610e739291906111c7565b60405180910390a15b50505050565b80600160003373ffffffffffffffffffffffffffffffffffffffff1673ffffffffffffffffffffffffffffffffffffffff16815260200190815260200160002060006101000a81548173ffffffffffffffffffffffffffffffffffffffff021916908373ffffffffffffffffffffffffffffffffffffffff1602179055507f35e9f25e19eea2e90d16215ec900874265c5e6c376acea396932076c559f035a81604051610f2f91906111f0565b60405180910390a150565b600080fd5b6000819050919050565b610f5281610f3f565b8114610f5d57600080fd5b50565b600081359050610f6f81610f49565b92915050565b60008060408385031215610f8c57610f8b610f3a565b5b6000610f9a85828601610f60565b9250506020610fab85828601610f60565b9150509250929050565b600073ffffffffffffffffffffffffffffffffffffffff82169050919050565b6000610fe082610fb5565b9050919050565b610ff081610fd5565b8114610ffb57600080fd5b50565b60008135905061100d81610fe7565b92915050565b60006020828403121561102957611028610f3a565b5b600061103784828501610ffe565b91505092915050565b61104981610f3f565b82525050565b60006020820190506110646000830184611040565b92915050565b60008151905061107981610fe7565b92915050565b60006020828403121561109557611094610f3a565b5b60006110a38482850161106a565b91505092915050565b600082825260208201905092915050565b7f4e6f742076616c69642070616972210000000000000000000000000000000000600082015250565b60006110f3600f836110ac565b91506110fe826110bd565b602082019050919050565b60006020820190508181036000830152611122816110e6565b9050919050565b600060ff82169050919050565b61113f81611129565b811461114a57600080fd5b50565b60008151905061115c81611136565b92915050565b60006020828403121561117857611177610f3a565b5b60006111868482850161114d565b91505092915050565b61119881610fd5565b82525050565b60006040820190506111b36000830185611040565b6111c0602083018461118f565b9392505050565b60006040820190506111dc6000830185611040565b6111e96020830184611040565b9392505050565b6000602082019050611205600083018461118f565b9291505056fea26469706673582212200f1934a2dfae47cbbf6b1f1129dd06052ff2f8b67e3d4569c70b266c34f58bb664736f6c63430008130033",
  "immutableReferences": {},
  "source": "pragma solidity ^0.8.0;\nimport \"./Dice.sol\";\n\ncontract DiceBattle {\n    Dice diceContract;\n    mapping(address => address) battle_pair;\n\n    constructor(Dice diceAddress) public {\n        diceContract = diceAddress;\n    }\n    event add_enemy(address enemy);\n    event battlewin(uint256 id1, uint256 id2);\n    event battleDraw(uint256 id1, uint256 id2);\n\n    function setBattlePair(address enemy) public {\n        battle_pair[msg.sender] = enemy;\n        emit add_enemy(enemy);\n    }\n\n    function battle(uint256 myDice, uint256 enemyDice) public {\n        // Require that battle_pairs align, ie each player has accepted a battle with the other\n        address mine = diceContract.getPrevOwner(myDice);\n        address enemy = diceContract.getPrevOwner(enemyDice);\n\n        require(battle_pair[mine] == enemy, \"Not valid pair!\");\n        require(battle_pair[enemy] == mine, \"Not valid pair!\");\n\n        diceContract.roll(myDice);\n        diceContract.stopRoll(myDice);\n        diceContract.roll(enemyDice);\n        diceContract.stopRoll(enemyDice);\n\n        if ( diceContract.getDiceNumber(myDice) > diceContract.getDiceNumber(enemyDice) ) {\n            diceContract.transfer(myDice, diceContract.getPrevOwner(enemyDice)); //last owner before sending to DiceBattle\n            diceContract.transfer(enemyDice, diceContract.getPrevOwner(enemyDice));\n            emit battlewin(myDice,enemyDice);\n        }\n        if ( diceContract.getDiceNumber(myDice) < diceContract.getDiceNumber(enemyDice) ) {\n            //ownership[enemyDice] = ownership[myDice];\n            //unlist(enemyDice);\n            diceContract.transfer(enemyDice,diceContract.getPrevOwner(myDice)); //last owner before sending to DiceBattle\n            diceContract.transfer(myDice,diceContract.getPrevOwner(myDice));\n            emit battlewin(enemyDice,myDice);\n        }\n        if ( diceContract.getDiceNumber(myDice) == diceContract.getDiceNumber(enemyDice) ) {\n            emit battleDraw(myDice,enemyDice);\n        }\n\n    }\n\n}",
  "sourcePath": "/Users/liangxin/Documents/Learning/Master/NUS/DFT/Curriculum/SEM2/FT5004 Blockchain Programming/Week 3/env/contracts/DiceBattle.sol",
  "compiler": {
    "name": "solc",
    "version": "0.8.19+commit.7dd6d404.Emscripten.clang"
  },
  "schemaVersion": "3.4.13",
  "updatedAt": "2023-04-05T13:42:51.595Z",
  "devdoc": {
    "kind": "dev",
    "methods": {},
    "version": 1
  },
  "userdoc": {
    "kind": "user",
    "methods": {},
    "version": 1
  }
}