{
  "contractName": "DiceMarket",
  "abi": [
    {
      "inputs": [
        {
          "internalType": "uint256",
          "name": "_commissionFee",
          "type": "uint256"
        },
        {
          "internalType": "contract Dice",
          "name": "diceAddress",
          "type": "address"
        }
      ],
      "stateMutability": "nonpayable",
      "type": "constructor"
    },
    {
      "inputs": [],
      "name": "comFee",
      "outputs": [
        {
          "internalType": "uint256",
          "name": "",
          "type": "uint256"
        }
      ],
      "stateMutability": "view",
      "type": "function"
    },
    {
      "inputs": [
        {
          "internalType": "uint256",
          "name": "",
          "type": "uint256"
        }
      ],
      "name": "diceSaleList",
      "outputs": [
        {
          "internalType": "uint256",
          "name": "",
          "type": "uint256"
        }
      ],
      "stateMutability": "view",
      "type": "function"
    },
    {
      "inputs": [],
      "name": "owner",
      "outputs": [
        {
          "internalType": "address",
          "name": "",
          "type": "address"
        }
      ],
      "stateMutability": "view",
      "type": "function"
    },
    {
      "inputs": [
        {
          "internalType": "uint256",
          "name": "diceId",
          "type": "uint256"
        },
        {
          "internalType": "uint256",
          "name": "price",
          "type": "uint256"
        }
      ],
      "name": "list",
      "outputs": [],
      "stateMutability": "nonpayable",
      "type": "function"
    },
    {
      "inputs": [
        {
          "internalType": "uint256",
          "name": "diceId",
          "type": "uint256"
        }
      ],
      "name": "unlist",
      "outputs": [],
      "stateMutability": "nonpayable",
      "type": "function"
    },
    {
      "inputs": [
        {
          "internalType": "uint256",
          "name": "diceId",
          "type": "uint256"
        }
      ],
      "name": "checkPrice",
      "outputs": [
        {
          "internalType": "uint256",
          "name": "",
          "type": "uint256"
        }
      ],
      "stateMutability": "view",
      "type": "function"
    },
    {
      "inputs": [
        {
          "internalType": "uint256",
          "name": "diceId",
          "type": "uint256"
        }
      ],
      "name": "buy",
      "outputs": [],
      "stateMutability": "payable",
      "type": "function"
    },
    {
      "inputs": [],
      "name": "getContractOwner",
      "outputs": [
        {
          "internalType": "address",
          "name": "",
          "type": "address"
        }
      ],
      "stateMutability": "nonpayable",
      "type": "function"
    }
  ],
  "bytecode": "0x608060405260006001553480156200001657600080fd5b5060405162000dea38038062000dea83398181016040528101906200003c919062000185565b336000806101000a81548173ffffffffffffffffffffffffffffffffffffffff021916908373ffffffffffffffffffffffffffffffffffffffff1602179055508160018190555080600260006101000a81548173ffffffffffffffffffffffffffffffffffffffff021916908373ffffffffffffffffffffffffffffffffffffffff1602179055505050620001cc565b600080fd5b6000819050919050565b620000e681620000d1565b8114620000f257600080fd5b50565b6000815190506200010681620000db565b92915050565b600073ffffffffffffffffffffffffffffffffffffffff82169050919050565b600062000139826200010c565b9050919050565b60006200014d826200012c565b9050919050565b6200015f8162000140565b81146200016b57600080fd5b50565b6000815190506200017f8162000154565b92915050565b600080604083850312156200019f576200019e620000cc565b5b6000620001af85828601620000f5565b9250506020620001c2858286016200016e565b9150509250929050565b610c0e80620001dc6000396000f3fe60806040526004361061007b5760003560e01c80638da5cb5b1161004e5780638da5cb5b1461013c578063bf5a4dd314610167578063d96a094a14610190578063eba79030146101ac5761007b565b80631de7463a146100805780633512e04c146100bd578063442890d5146100e857806350fd736714610113575b600080fd5b34801561008c57600080fd5b506100a760048036038101906100a29190610851565b6101e9565b6040516100b4919061088d565b60405180910390f35b3480156100c957600080fd5b506100d261025e565b6040516100df919061088d565b60405180910390f35b3480156100f457600080fd5b506100fd610264565b60405161010a91906108e9565b60405180910390f35b34801561011f57600080fd5b5061013a60048036038101906101359190610904565b61028d565b005b34801561014857600080fd5b506101516103b2565b60405161015e91906108e9565b60405180910390f35b34801561017357600080fd5b5061018e60048036038101906101899190610851565b6103d6565b005b6101aa60048036038101906101a59190610851565b610553565b005b3480156101b857600080fd5b506101d360048036038101906101ce9190610851565b6107fe565b6040516101e0919061088d565b60405180910390f35b6000816000600360008381526020019081526020016000205403610242576040517f08c379a0000000000000000000000000000000000000000000000000000000008152600401610239906109a1565b60405180910390fd5b6003600084815260200190815260200160002054915050919050565b60015481565b60008060009054906101000a900473ffffffffffffffffffffffffffffffffffffffff16905090565b600260009054906101000a900473ffffffffffffffffffffffffffffffffffffffff1673ffffffffffffffffffffffffffffffffffffffff1663f2d03fcf836040518263ffffffff1660e01b81526004016102e8919061088d565b602060405180830381865afa158015610305573d6000803e3d6000fd5b505050506040513d601f19601f8201168201806040525081019061032991906109ed565b73ffffffffffffffffffffffffffffffffffffffff163373ffffffffffffffffffffffffffffffffffffffff1614610396576040517f08c379a000000000000000000000000000000000000000000000000000000000815260040161038d90610a8c565b60405180910390fd5b8060036000848152602001908152602001600020819055505050565b60008054906101000a900473ffffffffffffffffffffffffffffffffffffffff1681565b80600060036000838152602001908152602001600020540361042d576040517f08c379a0000000000000000000000000000000000000000000000000000000008152600401610424906109a1565b60405180910390fd5b600260009054906101000a900473ffffffffffffffffffffffffffffffffffffffff1673ffffffffffffffffffffffffffffffffffffffff1663f2d03fcf836040518263ffffffff1660e01b8152600401610488919061088d565b602060405180830381865afa1580156104a5573d6000803e3d6000fd5b505050506040513d601f19601f820116820180604052508101906104c991906109ed565b73ffffffffffffffffffffffffffffffffffffffff163373ffffffffffffffffffffffffffffffffffffffff1614610536576040517f08c379a000000000000000000000000000000000000000000000000000000000815260040161052d90610a8c565b60405180910390fd5b600060036000848152602001908152602001600020819055505050565b8060006003600083815260200190815260200160002054036105aa576040517f08c379a00000000000000000000000000000000000000000000000000000000081526004016105a1906109a1565b60405180910390fd5b6000600360008481526020019081526020016000205403610600576040517f08c379a00000000000000000000000000000000000000000000000000000000081526004016105f7906109a1565b60405180910390fd5b60015460036000848152602001908152602001600020546106219190610adb565b341015610663576040517f08c379a000000000000000000000000000000000000000000000000000000000815260040161065a90610b5b565b60405180910390fd5b6000600260009054906101000a900473ffffffffffffffffffffffffffffffffffffffff1673ffffffffffffffffffffffffffffffffffffffff1663f2d03fcf846040518263ffffffff1660e01b81526004016106c0919061088d565b602060405180830381865afa1580156106dd573d6000803e3d6000fd5b505050506040513d601f19601f8201168201806040525081019061070191906109ed565b90508073ffffffffffffffffffffffffffffffffffffffff166108fc600154600360008781526020019081526020016000205461073e9190610b7b565b9081150290604051600060405180830381858888f19350505050158015610769573d6000803e3d6000fd5b50600260009054906101000a900473ffffffffffffffffffffffffffffffffffffffff1673ffffffffffffffffffffffffffffffffffffffff1663b7760c8f84336040518363ffffffff1660e01b81526004016107c7929190610baf565b600060405180830381600087803b1580156107e157600080fd5b505af11580156107f5573d6000803e3d6000fd5b50505050505050565b60036020528060005260406000206000915090505481565b600080fd5b6000819050919050565b61082e8161081b565b811461083957600080fd5b50565b60008135905061084b81610825565b92915050565b60006020828403121561086757610866610816565b5b60006108758482850161083c565b91505092915050565b6108878161081b565b82525050565b60006020820190506108a2600083018461087e565b92915050565b600073ffffffffffffffffffffffffffffffffffffffff82169050919050565b60006108d3826108a8565b9050919050565b6108e3816108c8565b82525050565b60006020820190506108fe60008301846108da565b92915050565b6000806040838503121561091b5761091a610816565b5b60006109298582860161083c565b925050602061093a8582860161083c565b9150509250929050565b600082825260208201905092915050565b7f5468652064696365206973206e6f74206f6e2073616c652e0000000000000000600082015250565b600061098b601883610944565b915061099682610955565b602082019050919050565b600060208201905081810360008301526109ba8161097e565b9050919050565b6109ca816108c8565b81146109d557600080fd5b50565b6000815190506109e7816109c1565b92915050565b600060208284031215610a0357610a02610816565b5b6000610a11848285016109d8565b91505092915050565b7f546865206d73672e73656e6465722073686f756c642062652070726576696f7560008201527f73206f776e65722e000000000000000000000000000000000000000000000000602082015250565b6000610a76602883610944565b9150610a8182610a1a565b604082019050919050565b60006020820190508181036000830152610aa581610a69565b9050919050565b7f4e487b7100000000000000000000000000000000000000000000000000000000600052601160045260246000fd5b6000610ae68261081b565b9150610af18361081b565b9250828201905080821115610b0957610b08610aac565b5b92915050565b7f596f7520646f206e6f742070617920656e6f756768206d6f6e65792e00000000600082015250565b6000610b45601c83610944565b9150610b5082610b0f565b602082019050919050565b60006020820190508181036000830152610b7481610b38565b9050919050565b6000610b868261081b565b9150610b918361081b565b9250828203905081811115610ba957610ba8610aac565b5b92915050565b6000604082019050610bc4600083018561087e565b610bd160208301846108da565b939250505056fea2646970667358221220af1265c4fe94ae43984739c54e691093a9a6e810bdcc8ed0ce9beee11509e5b364736f6c63430008130033",
  "immutableReferences": {},
  "source": "pragma solidity ^0.8.0;\n\nimport \"./Dice.sol\";\n\ncontract DiceMarket {\n    address public owner;\n    uint256 public comFee = 0;\n    //uint256 public saleId = 0;\n    Dice diceContract;\n\n    mapping(uint256 => uint256) public diceSaleList;\n\n    //construct the contract\n    constructor(uint256 _commissionFee, Dice diceAddress) {\n        owner = msg.sender;\n        comFee = _commissionFee;\n        //import the dices\n        diceContract = diceAddress;\n    }\n\n    //diceContract.dices[diceId]\n    //modifier to ensure a function is callable only by its owner    \n    //modifier validPrice(uint256 diceId, uint256 price) {\n    //    require(price >= comFee + diceContract.getDiceValue(diceId), \"The price is less than comission fee plus dice value.\");\n    //   _;\n    //}\n    \n    modifier isOnSale(uint256 diceId) {\n        require(diceSaleList[diceId] != 0, \"The dice is not on sale.\");\n        _;\n    }\n\n    //list a dice for sale    \n    function list(uint256 diceId, uint256 price) public {\n        //require(price >= comFee + diceContract.getDiceValue(diceId), \"The price is less than comission fee plus dice value.\");\n        require(msg.sender == diceContract.getPrevOwner(diceId), \"The msg.sender should be previous owner.\");\n        diceSaleList[diceId] = price;\n    }\n    //unlist a dice\n    function unlist(uint256 diceId) public isOnSale(diceId) {\n        //require(diceSaleList[diceId] != 0, \"The dice is not on sale.\");\n        require(msg.sender == diceContract.getPrevOwner(diceId), \"The msg.sender should be previous owner.\");\n        diceSaleList[diceId] = 0;\n    }\n\n    //get the price of the dice\n    function checkPrice(uint256 diceId) public view isOnSale(diceId) returns (uint256) {\n        return diceSaleList[diceId];\n    }\n\n    //get number of sides of dice    \n    function buy(uint256 diceId) public payable isOnSale(diceId) {\n        ////////////////////////\n        // Q1: Who is the buyer? Is the buyer the sender? And is the sender here different from the sender in the \n        // constructor? Like one is the msg sender for the construct function, one is for the buy function.\n        ////////////////////////\n        //buyer: payable(msg.sender);\n        //seller = payable(diceContract.dices[diceId].prevOwner);\n        //require(diceSaleList[diceId] != 0, \"The dice is not on sale.\");\n        require(diceSaleList[diceId] != 0, \"The dice is not on sale.\");\n        require(msg.value >= diceSaleList[diceId] + comFee, \"You do not pay enough money.\");\n        address payable seller = payable(diceContract.getPrevOwner(diceId));\n        seller.transfer(diceSaleList[diceId] - comFee);\n        diceContract.transfer(diceId, msg.sender);\n        //unlist(diceId);\n        \n    }\n    \n    function getContractOwner() public returns (address) {\n        return owner;\n    }\n}\n",
  "sourcePath": "/Users/liangxin/Documents/Learning/Master/NUS/DFT/Curriculum/SEM2/FT5004 Blockchain Programming/Week 3/env/contracts/DiceMarket.sol",
  "compiler": {
    "name": "solc",
    "version": "0.8.19+commit.7dd6d404.Emscripten.clang"
  },
  "schemaVersion": "3.4.13",
  "updatedAt": "2023-04-05T15:50:03.290Z",
  "devdoc": {
    "kind": "dev",
    "methods": {},
    "version": 1
  },
  "userdoc": {
    "kind": "user",
    "methods": {},
    "version": 1
  }
}